{
  "_format": "hh-sol-artifact-1",
  "contractName": "TokenFarm",
  "sourceName": "contracts/TokenFarm.sol",
  "abi": [
    {
      "inputs": [
        {
          "internalType": "contract DappToken",
          "name": "_dappToken",
          "type": "address"
        },
        {
          "internalType": "contract DaiToken",
          "name": "_daiToken",
          "type": "address"
        }
      ],
      "stateMutability": "nonpayable",
      "type": "constructor"
    },
    {
      "inputs": [],
      "name": "daiToken",
      "outputs": [
        {
          "internalType": "contract DaiToken",
          "name": "",
          "type": "address"
        }
      ],
      "stateMutability": "view",
      "type": "function"
    },
    {
      "inputs": [],
      "name": "dappToken",
      "outputs": [
        {
          "internalType": "contract DappToken",
          "name": "",
          "type": "address"
        }
      ],
      "stateMutability": "view",
      "type": "function"
    },
    {
      "inputs": [
        {
          "internalType": "address",
          "name": "",
          "type": "address"
        }
      ],
      "name": "hasStaked",
      "outputs": [
        {
          "internalType": "bool",
          "name": "",
          "type": "bool"
        }
      ],
      "stateMutability": "view",
      "type": "function"
    },
    {
      "inputs": [
        {
          "internalType": "address",
          "name": "",
          "type": "address"
        }
      ],
      "name": "isStaking",
      "outputs": [
        {
          "internalType": "bool",
          "name": "",
          "type": "bool"
        }
      ],
      "stateMutability": "view",
      "type": "function"
    },
    {
      "inputs": [],
      "name": "issueTokens",
      "outputs": [],
      "stateMutability": "nonpayable",
      "type": "function"
    },
    {
      "inputs": [],
      "name": "name",
      "outputs": [
        {
          "internalType": "string",
          "name": "",
          "type": "string"
        }
      ],
      "stateMutability": "view",
      "type": "function"
    },
    {
      "inputs": [],
      "name": "owner",
      "outputs": [
        {
          "internalType": "address",
          "name": "",
          "type": "address"
        }
      ],
      "stateMutability": "view",
      "type": "function"
    },
    {
      "inputs": [
        {
          "internalType": "uint256",
          "name": "_amount",
          "type": "uint256"
        }
      ],
      "name": "stakeTokens",
      "outputs": [],
      "stateMutability": "nonpayable",
      "type": "function"
    },
    {
      "inputs": [
        {
          "internalType": "uint256",
          "name": "",
          "type": "uint256"
        }
      ],
      "name": "stakers",
      "outputs": [
        {
          "internalType": "address",
          "name": "",
          "type": "address"
        }
      ],
      "stateMutability": "view",
      "type": "function"
    },
    {
      "inputs": [
        {
          "internalType": "address",
          "name": "",
          "type": "address"
        }
      ],
      "name": "stakingBalance",
      "outputs": [
        {
          "internalType": "uint256",
          "name": "",
          "type": "uint256"
        }
      ],
      "stateMutability": "view",
      "type": "function"
    },
    {
      "inputs": [
        {
          "internalType": "uint256",
          "name": "_amount",
          "type": "uint256"
        }
      ],
      "name": "unstakeTokens",
      "outputs": [],
      "stateMutability": "nonpayable",
      "type": "function"
    }
  ],
  "bytecode": "0x60806040526040518060400160405280600f81526020017f4461707020546f6b656e204661726d0000000000000000000000000000000000815250600090816200004a9190620003c3565b503480156200005857600080fd5b50604051620017693803806200176983398181016040528101906200007e91906200056d565b81600260006101000a81548173ffffffffffffffffffffffffffffffffffffffff021916908373ffffffffffffffffffffffffffffffffffffffff16021790555080600360006101000a81548173ffffffffffffffffffffffffffffffffffffffff021916908373ffffffffffffffffffffffffffffffffffffffff16021790555033600160006101000a81548173ffffffffffffffffffffffffffffffffffffffff021916908373ffffffffffffffffffffffffffffffffffffffff1602179055505050620005b4565b600081519050919050565b7f4e487b7100000000000000000000000000000000000000000000000000000000600052604160045260246000fd5b7f4e487b7100000000000000000000000000000000000000000000000000000000600052602260045260246000fd5b60006002820490506001821680620001cb57607f821691505b602082108103620001e157620001e062000183565b5b50919050565b60008190508160005260206000209050919050565b60006020601f8301049050919050565b600082821b905092915050565b6000600883026200024b7fffffffffffffffffffffffffffffffffffffffffffffffffffffffffffffffff826200020c565b6200025786836200020c565b95508019841693508086168417925050509392505050565b6000819050919050565b6000819050919050565b6000620002a46200029e62000298846200026f565b62000279565b6200026f565b9050919050565b6000819050919050565b620002c08362000283565b620002d8620002cf82620002ab565b84845462000219565b825550505050565b600090565b620002ef620002e0565b620002fc818484620002b5565b505050565b5b81811015620003245762000318600082620002e5565b60018101905062000302565b5050565b601f82111562000373576200033d81620001e7565b6200034884620001fc565b8101602085101562000358578190505b620003706200036785620001fc565b83018262000301565b50505b505050565b600082821c905092915050565b6000620003986000198460080262000378565b1980831691505092915050565b6000620003b3838362000385565b9150826002028217905092915050565b620003ce8262000149565b67ffffffffffffffff811115620003ea57620003e962000154565b5b620003f68254620001b2565b6200040382828562000328565b600060209050601f8311600181146200043b576000841562000426578287015190505b620004328582620003a5565b865550620004a2565b601f1984166200044b86620001e7565b60005b8281101562000475578489015182556001820191506020850194506020810190506200044e565b8683101562000495578489015162000491601f89168262000385565b8355505b6001600288020188555050505b505050505050565b600080fd5b600073ffffffffffffffffffffffffffffffffffffffff82169050919050565b6000620004dc82620004af565b9050919050565b6000620004f082620004cf565b9050919050565b6200050281620004e3565b81146200050e57600080fd5b50565b6000815190506200052281620004f7565b92915050565b60006200053582620004cf565b9050919050565b620005478162000528565b81146200055357600080fd5b50565b60008151905062000567816200053c565b92915050565b60008060408385031215620005875762000586620004aa565b5b6000620005978582860162000511565b9250506020620005aa8582860162000556565b9150509250929050565b6111a580620005c46000396000f3fe608060405234801561001057600080fd5b50600436106100a95760003560e01c80636f49712b116100715780636f49712b146101405780637547c7a3146101705780638da5cb5b1461018c578063be22f546146101aa578063c93c8f34146101c8578063fd5e6dd1146101f8576100a9565b806306fdde03146100ae57806345bc78ab146100cc5780635eb186f8146100fc578063608e4dd01461011a57806360ab585214610136575b600080fd5b6100b6610228565b6040516100c39190610b89565b60405180910390f35b6100e660048036038101906100e19190610c0e565b6102b6565b6040516100f39190610c54565b60405180910390f35b6101046102ce565b6040516101119190610cce565b60405180910390f35b610134600480360381019061012f9190610d15565b6102f4565b005b61013e610568565b005b61015a60048036038101906101559190610c0e565b610752565b6040516101679190610d5d565b60405180910390f35b61018a60048036038101906101859190610d15565b610772565b005b610194610a4e565b6040516101a19190610d87565b60405180910390f35b6101b2610a74565b6040516101bf9190610dc3565b60405180910390f35b6101e260048036038101906101dd9190610c0e565b610a9a565b6040516101ef9190610d5d565b60405180910390f35b610212600480360381019061020d9190610d15565b610aba565b60405161021f9190610d87565b60405180910390f35b6000805461023590610e0d565b80601f016020809104026020016040519081016040528092919081815260200182805461026190610e0d565b80156102ae5780601f10610283576101008083540402835291602001916102ae565b820191906000526020600020905b81548152906001019060200180831161029157829003601f168201915b505050505081565b60056020528060005260406000206000915090505481565b600260009054906101000a900473ffffffffffffffffffffffffffffffffffffffff1681565b6000600560003373ffffffffffffffffffffffffffffffffffffffff1673ffffffffffffffffffffffffffffffffffffffff1681526020019081526020016000205490508181101561037b576040517f08c379a000000000000000000000000000000000000000000000000000000000815260040161037290610eb0565b60405180910390fd5b600360009054906101000a900473ffffffffffffffffffffffffffffffffffffffff1673ffffffffffffffffffffffffffffffffffffffff1663a9059cbb33846040518363ffffffff1660e01b81526004016103d8929190610ed0565b6020604051808303816000875af11580156103f7573d6000803e3d6000fd5b505050506040513d601f19601f8201168201806040525081019061041b9190610f25565b50600260009054906101000a900473ffffffffffffffffffffffffffffffffffffffff1673ffffffffffffffffffffffffffffffffffffffff1663a9059cbb33846040518363ffffffff1660e01b8152600401610479929190610ed0565b6020604051808303816000875af1158015610498573d6000803e3d6000fd5b505050506040513d601f19601f820116820180604052508101906104bc9190610f25565b5081816104c99190610f81565b600560003373ffffffffffffffffffffffffffffffffffffffff1673ffffffffffffffffffffffffffffffffffffffff168152602001908152602001600020819055506000600760003373ffffffffffffffffffffffffffffffffffffffff1673ffffffffffffffffffffffffffffffffffffffff16815260200190815260200160002060006101000a81548160ff0219169083151502179055505050565b600160009054906101000a900473ffffffffffffffffffffffffffffffffffffffff1673ffffffffffffffffffffffffffffffffffffffff163373ffffffffffffffffffffffffffffffffffffffff16146105f8576040517f08c379a00000000000000000000000000000000000000000000000000000000081526004016105ef90611001565b60405180910390fd5b60005b60048054905081101561074f5760006004828154811061061e5761061d611021565b5b9060005260206000200160009054906101000a900473ffffffffffffffffffffffffffffffffffffffff1690506000600560008373ffffffffffffffffffffffffffffffffffffffff1673ffffffffffffffffffffffffffffffffffffffff168152602001908152602001600020549050600081111561073a57600260009054906101000a900473ffffffffffffffffffffffffffffffffffffffff1673ffffffffffffffffffffffffffffffffffffffff1663a9059cbb83836040518363ffffffff1660e01b81526004016106f5929190610ed0565b6020604051808303816000875af1158015610714573d6000803e3d6000fd5b505050506040513d601f19601f820116820180604052508101906107389190610f25565b505b5050808061074790611050565b9150506105fb565b50565b60076020528060005260406000206000915054906101000a900460ff1681565b600081116107b5576040517f08c379a00000000000000000000000000000000000000000000000000000000081526004016107ac906110e4565b60405180910390fd5b600360009054906101000a900473ffffffffffffffffffffffffffffffffffffffff1673ffffffffffffffffffffffffffffffffffffffff166323b872dd3330846040518463ffffffff1660e01b815260040161081493929190611104565b6020604051808303816000875af1158015610833573d6000803e3d6000fd5b505050506040513d601f19601f820116820180604052508101906108579190610f25565b5080600560003373ffffffffffffffffffffffffffffffffffffffff1673ffffffffffffffffffffffffffffffffffffffff168152602001908152602001600020546108a3919061113b565b600560003373ffffffffffffffffffffffffffffffffffffffff1673ffffffffffffffffffffffffffffffffffffffff16815260200190815260200160002081905550600660003373ffffffffffffffffffffffffffffffffffffffff1673ffffffffffffffffffffffffffffffffffffffff16815260200190815260200160002060009054906101000a900460ff1661099b576004339080600181540180825580915050600190039060005260206000200160009091909190916101000a81548173ffffffffffffffffffffffffffffffffffffffff021916908373ffffffffffffffffffffffffffffffffffffffff1602179055505b6001600760003373ffffffffffffffffffffffffffffffffffffffff1673ffffffffffffffffffffffffffffffffffffffff16815260200190815260200160002060006101000a81548160ff0219169083151502179055506001600660003373ffffffffffffffffffffffffffffffffffffffff1673ffffffffffffffffffffffffffffffffffffffff16815260200190815260200160002060006101000a81548160ff02191690831515021790555050565b600160009054906101000a900473ffffffffffffffffffffffffffffffffffffffff1681565b600360009054906101000a900473ffffffffffffffffffffffffffffffffffffffff1681565b60066020528060005260406000206000915054906101000a900460ff1681565b60048181548110610aca57600080fd5b906000526020600020016000915054906101000a900473ffffffffffffffffffffffffffffffffffffffff1681565b600081519050919050565b600082825260208201905092915050565b60005b83811015610b33578082015181840152602081019050610b18565b60008484015250505050565b6000601f19601f8301169050919050565b6000610b5b82610af9565b610b658185610b04565b9350610b75818560208601610b15565b610b7e81610b3f565b840191505092915050565b60006020820190508181036000830152610ba38184610b50565b905092915050565b600080fd5b600073ffffffffffffffffffffffffffffffffffffffff82169050919050565b6000610bdb82610bb0565b9050919050565b610beb81610bd0565b8114610bf657600080fd5b50565b600081359050610c0881610be2565b92915050565b600060208284031215610c2457610c23610bab565b5b6000610c3284828501610bf9565b91505092915050565b6000819050919050565b610c4e81610c3b565b82525050565b6000602082019050610c696000830184610c45565b92915050565b6000819050919050565b6000610c94610c8f610c8a84610bb0565b610c6f565b610bb0565b9050919050565b6000610ca682610c79565b9050919050565b6000610cb882610c9b565b9050919050565b610cc881610cad565b82525050565b6000602082019050610ce36000830184610cbf565b92915050565b610cf281610c3b565b8114610cfd57600080fd5b50565b600081359050610d0f81610ce9565b92915050565b600060208284031215610d2b57610d2a610bab565b5b6000610d3984828501610d00565b91505092915050565b60008115159050919050565b610d5781610d42565b82525050565b6000602082019050610d726000830184610d4e565b92915050565b610d8181610bd0565b82525050565b6000602082019050610d9c6000830184610d78565b92915050565b6000610dad82610c9b565b9050919050565b610dbd81610da2565b82525050565b6000602082019050610dd86000830184610db4565b92915050565b7f4e487b7100000000000000000000000000000000000000000000000000000000600052602260045260246000fd5b60006002820490506001821680610e2557607f821691505b602082108103610e3857610e37610dde565b5b50919050565b7f7374616b696e672062616c616e63652073686f756c64206265206d6f7265207460008201527f68616e20756e7374616b656420616d6f756e7400000000000000000000000000602082015250565b6000610e9a603383610b04565b9150610ea582610e3e565b604082019050919050565b60006020820190508181036000830152610ec981610e8d565b9050919050565b6000604082019050610ee56000830185610d78565b610ef26020830184610c45565b9392505050565b610f0281610d42565b8114610f0d57600080fd5b50565b600081519050610f1f81610ef9565b92915050565b600060208284031215610f3b57610f3a610bab565b5b6000610f4984828501610f10565b91505092915050565b7f4e487b7100000000000000000000000000000000000000000000000000000000600052601160045260246000fd5b6000610f8c82610c3b565b9150610f9783610c3b565b9250828203905081811115610faf57610fae610f52565b5b92915050565b7f63616c6c6572206d75737420626520746865206f776e65720000000000000000600082015250565b6000610feb601883610b04565b9150610ff682610fb5565b602082019050919050565b6000602082019050818103600083015261101a81610fde565b9050919050565b7f4e487b7100000000000000000000000000000000000000000000000000000000600052603260045260246000fd5b600061105b82610c3b565b91507fffffffffffffffffffffffffffffffffffffffffffffffffffffffffffffffff820361108d5761108c610f52565b5b600182019050919050565b7f616d6f756e742063616e27742062652030000000000000000000000000000000600082015250565b60006110ce601183610b04565b91506110d982611098565b602082019050919050565b600060208201905081810360008301526110fd816110c1565b9050919050565b60006060820190506111196000830186610d78565b6111266020830185610d78565b6111336040830184610c45565b949350505050565b600061114682610c3b565b915061115183610c3b565b925082820190508082111561116957611168610f52565b5b9291505056fea2646970667358221220a4143680b1abf0d7d812d73853abc86a0927f7e79af60ecab1b704b26123817f64736f6c63430008120033",
  "linkReferences": {},
  "deployedLinkReferences": {}
}